:020000040800F2
:1000000000000320D11000080D1000080F10000898
:10001000111000081310000815100008000000005F
:1000200000000000000000000000000017100008A1
:1000300019100008000000001B1000081D10000827
:1000400021110008211100082111000821110008C8
:1000500021110008211100082111000821110008B8
:1000600021110008211100082111000821110008A8
:100070002111000821110008211100082111000898
:100080002111000821110008211100082111000888
:100090002111000821110008211100082111000878
:1000A0002111000821110008211100082111000868
:1000B0002111000821110008211100082111000858
:1000C0002111000821110008211100082111000848
:1000D0002111000821110008211100082111000838
:1000E0002111000821110008211100082111000828
:1000F0002111000821110008211100082111000818
:100100002111000821110008211100082111000807
:1001100021110008211100082111000821110008F7
:1001200021110008211100082111000821110008E7
:1001300021110008211100082111000821110008D7
:1001400021110008211100082111000821110008C7
:1001500021110008211100082111000821110008B7
:1001600021110008211100082111000821110008A7
:1001700021110008211100082111000800000000D1
:100180002111000821110008211100082111000887
:100190002111000821110008211100082111000877
:0C01A000211100082111000821110008A5
:1001AC0010B5054C237833B9044B13B10448AFF3A5
:1001BC0000800123237010BD1C00002000000000F3
:1001CC007C11000808B5034B1BB103490348AFF37E
:1001DC00008008BD00000000200000207C110008F9
:1001EC0053B94AB9002908BF00281CBF4FF0FF3192
:1001FC004FF0FF3000F072B9ADF1080C6DE904CE90
:10020C0000F006F8DDF804E0DDE9022304B07047E5
:10021C002DE9F047089E04468846002B4BD18A42B4
:10022C00154667D9B2FA82F24AB1C2F1200701FA37
:10023C0002F320FA07F7954047EA030894404FEA87
:10024C00154E230CB8FBFEF71FFA85FC0EFB178826
:10025C0043EA084307FB0CF1994209D9EB1807F163
:10026C00FF3080F01B81994240F21881023F2B44F1
:10027C005B1AA4B2B3FBFEF00EFB103344EA03444A
:10028C0000FB0CFCA44509D92C1900F1FF3380F0BC
:10029C000781A44540F2048102382C4440EA07400F
:1002AC00A4EB0C0400271EB1D4400023C6E9004384
:1002BC003946BDE8F0878B4209D9002E00F0EB805F
:1002CC000027C6E9000138463946BDE8F087B3FA85
:1002DC0083F7002F47D18B4202D3824200F2FA807F
:1002EC00841A61EB030301209846002EE0D0C6E986
:1002FC000048DDE702B9FFDEB2FA82F2002A40F0D4
:10030C008F80491B4FEA154E1FFA85F80127B1FB68
:10031C00FEFC230C0EFB1C1143EA014308FB0CF101
:10032C00994207D9EB180CF1FF3002D2994200F236
:10033C00CD808446591AA3B2B1FBFEF00EFB10140B
:10034C0043EA044408FB00F8A04507D92C1900F136
:10035C00FF3302D2A04500F2B6801846A4EB080485
:10036C0040EA0C409FE7C7F1200CBB4022FA0CFE80
:10037C004EEA030E01FA07F420FA0CF521FA0CF3FD
:10038C004FEA1E482543B3FBF8F92C0C08FB193334
:10039C001FFA8EFA44EA034309FB0AF49C4202FA60
:1003AC0007F200FA07F10BD91EEB030309F1FF303A
:1003BC0080F087809C4240F28480A9F1020973444A
:1003CC001B1BADB2B3FBF8F008FB103345EA03443A
:1003DC0000FB0AFAA24508D91EEB040400F1FF3316
:1003EC006BD2A24569D90238744440EA0940A0FB9B
:1003FC000289A4EB0A044C45C2464B4654D351D057
:10040C00002E69D0B1EB0A0564EB030404FA0CFC72
:10041C00FD40FC404CEA0505C6E90054002747E7BF
:10042C00C2F1200320FA03F7954001FA02F021FAF9
:10043C0003F34FEA154E3843010CB3FBFEF71FFADA
:10044C0085F80EFB173341EA034107FB08F38B4297
:10045C0004FA02F407D9691807F1FF3C2FD28B423A
:10046C002DD9023F2944CB1A81B2B3FBFEF00EFB0F
:10047C00103341EA034100FB08F38B4207D969189A
:10048C0000F1FF3C17D28B4215D902382944C91A06
:10049C0040EA07473BE73746304609E70746E7E6B9
:1004AC001846FBE64145ABD2B8EB020A69EB0E02EB
:1004BC0001381346A4E76046E9E7184695E7674616
:1004CC00D1E781467CE702382C4447E7ACF1020CBB
:1004DC002B442FE7384608E73746E9E6704700BF5C
:1004EC0010B504460E4B18784FF47A73B3FBF0F347
:1004FC000C4A1068B0FBF3F000F088F868B90F2CC8
:10050C0001D901200AE0002221464FF0FF3000F013
:10051C0049F8034B5C60002000E0012010BD00BFD7
:10052C00000000201800002008B50B4B1A6842F49C
:10053C0000721A601A6842F480621A601A6842F4F7
:10054C0080721A60032000F01BF80020FFF7C8FF30
:10055C0000F03AFD002008BD003C0240034A11683F
:10056C00034B1B780B441360704700BF380000200E
:10057C0000000020014B1868704700BF38000020B5
:10058C00074AD36823F4E0631B041B0C000200F43D
:10059C00E060184340F0BF6040F40030D06070471A
:1005AC0000ED00E030B4174BDB68C3F30223C3F15A
:1005BC000704042C28BF04241D1D062D18D9033B49
:1005CC004FF0FF3505FA04F421EA0401994005FACD
:1005DC0003F322EA0303194300280BDB0901C9B218
:1005EC0000F1604000F5614080F8001330BC7047AA
:1005FC000023E5E700F00F000901C9B2024B1954C2
:10060C00F4E700BF00ED00E014ED00E00138B0F1BC
:10061C00807F0AD2064B5860064AF02182F82310DC
:10062C000020986007221A6070470120704700BFB5
:10063C0010E000E000ED00E010B582B00023019363
:10064C00194B1A6C42F080521A641B6C03F08053E5
:10065C000193019B154B01221A60FFF78BFF044697
:10066C00134B5B6813F4803F08D1FFF783FF001B2B
:10067C00B0F57A7FF4D9032002B010BD0D4B0122E6
:10068C001A60FFF777FF0446094B5B6813F4003FD1
:10069C0007D1FFF76FFF001BB0F57A7FF4D9032069
:1006AC00EAE70020E8E700BF0038024040000E42B5
:1006BC000070004044000E42002800F0BB8170B571
:1006CC0082B00446036813F0010F3BD0A74B9B6824
:1006DC0003F00C03042B2CD0A44B9B6803F00C03ED
:1006EC00082B21D06368B3F5803F4FD0B3F5A02F12
:1006FC0052D09E4B1A6822F480321A601A6822F487
:10070C0080221A606368002B50D0FFF733FF054638
:10071C00964B1B6813F4003F14D1FFF72BFF401BC3
:10072C006428F5D903208AE1904B5B6813F4800FA1
:10073C00D8D08E4B1B6813F4003F03D06368002B9A
:10074C0000F07A81236813F0020F55D0874B9B6819
:10075C0013F00C0F3ED0854B9B6803F00C03082B59
:10076C0033D0E368002B68D0814B01221A60FFF76D
:10077C0001FF05467D4B1B6813F0020F54D1FFF7A8
:10078C00F9FE401B0228F5D9032058E1774A13687B
:10079C0043F480331360B5E7744B1A6842F480223B
:1007AC001A601A6842F480321A60ABE7FFF7E2FE77
:1007BC0005466E4B1B6813F4003FC3D0FFF7DAFEFF
:1007CC00401B6428F5D9032039E1684B5B6813F4AE
:1007DC00800FC6D1654B1B6813F0020F04D0E36881
:1007EC00012B01D001202AE1604A136823F0F803A1
:1007FC00216943EAC1031360236813F0080F40D04A
:10080C00636963B35B4B01221A60FFF7B3FE0546C5
:10081C00564B5B6F13F0020F33D1FFF7ABFE401B4F
:10082C000228F5D903200AE1504A136823F0F80393
:10083C00216943EAC1031360DEE74D4B00221A60C5
:10084C00FFF798FE0546494B1B6813F0020FD3D0F7
:10085C00FFF790FE401B0228F5D90320EFE0454B33
:10086C0000221A60FFF786FE0546404B5B6F13F0C3
:10087C00020F06D0FFF77EFE401B0228F5D903209D
:10088C00DDE0236813F0040F79D0384B1B6C13F0A8
:10089C00805F33D100230193344B1A6C42F08052A9
:1008AC001A641B6C03F080530193019B0125324B9E
:1008BC001B6813F4807F23D0A368012B34D0052B45
:1008CC0038D02A4B1A6F22F001021A671A6F22F0E5
:1008DC0004021A67A368002B36D0FFF74BFE0646BE
:1008EC00224B1B6F13F0020F48D1FFF743FE801B06
:1008FC0041F288339842F3D90320A0E00025D6E7D3
:10090C001D4A136843F480731360FFF733FE0646E9
:10091C00194B1B6813F4807FCED1FFF72BFE801B85
:10092C000228F5D903208AE0104A136F43F0010323
:10093C001367CFE70D4B1A6F42F004021A671A6F58
:10094C0042F001021A67C5E7FFF714FE0646074B93
:10095C001B6F13F0020F11D0FFF70CFE801B41F23E
:10096C0088339842F3D9032069E000BF0038024075
:10097C0000004742800E474200700040E5B9A36971
:10098C00002B5BD0304A926802F00C02082A58D037
:10099C00022B17D02D4B00221A60FFF7EBFD0446FB
:1009AC00294B1B6813F0007F42D0FFF7E3FD001BBF
:1009BC000228F5D9032042E0234A136C23F080531C
:1009CC001364DCE7214B00221A60FFF7D3FD0546C8
:1009DC001D4B1B6813F0007F06D0FFF7CBFD401BAF
:1009EC000228F5D903202AE0E369226A1343626ADC
:1009FC0043EA8213A26A5208013A43EA0243E26ACA
:100A0C0043EA0263104A5360104B01221A60FFF74D
:100A1C00B1FD04460C4B1B6813F0007F06D1FFF7A9
:100A2C00A9FD001B0228F5D9032008E0002006E0F0
:100A3C00002004E001207047012000E0002002B0FB
:100A4C0070BD0120FBE700BF003802406000474248
:100A5C00324B9B6803F00C03042B5CD0082B01D0A9
:100A6C002F4870472DE9F04B2C4B5A6802F03F028F
:100A7C005B6813F4800F2BD0284B5B68C3F388138F
:100A8C001E4600275C010025E41A65EB0705A90149
:100A9C0041EA9461A001001B61EB0501CB0043EA24
:100AAC005073C400A01943EB07014B0243EAD05327
:100ABC004402204619460023FFF792FB174B5B6854
:100ACC00C3F3014301335B00B0FBF3F0BDE8F08BE3
:100ADC00124B5B68C3F388131E4600275C0100258C
:100AEC00E41A65EB0705A90141EA9461A001001B1A
:100AFC0061EB0501CB0043EA5073C400A01943EB32
:100B0C0007018B0243EA90538402204619460023C6
:100B1C00FFF766FBD2E70348704700BF003802407E
:100B2C000024F40000127A00002800F09D8070B5BB
:100B3C0004464F4B1B6803F00F038B4209D2CBB218
:100B4C004B4A1370136803F00F038B4201D0012042
:100B5C0070BD236813F0020F17D013F0040F04D0EC
:100B6C00444A936843F4E0539360236813F0080FEE
:100B7C0004D0404A936843F4604393603D4A9368C1
:100B8C0023F0F003A068034393600D46236813F031
:100B9C00010F32D06368012B21D09A1E012A25D96E
:100BAC00344A126812F0020F60D032498A6822F07F
:100BBC00030213438B60FFF7DDFC06462D4B9B684D
:100BCC0003F00C036268B3EB820F16D0FFF7D2FC74
:100BDC00801B41F288339842F0D90320B8E7254AAC
:100BEC00126812F4003FE0D10120B1E7214A1268EB
:100BFC0012F0007FD9D10120AAE71D4B1B6803F02E
:100C0C000F03AB4209D9EAB2194B1A701B6803F0F7
:100C1C000F03AB4201D001209AE7236813F0040FB5
:100C2C0006D0144A936823F4E053E1680B439360B5
:100C3C00236813F0080F07D00E4A936823F460431F
:100C4C00216943EAC1039360FFF702FF094B9B68DC
:100C5C00C3F30313084AD35CD840084B1860002038
:100C6C00FFF73EFC002073E70120704701206FE77F
:100C7C00003C02400038024094110008180000208B
:100C8C0030B44B005D18EC000444256925EA0205DC
:100C9C002561226130BC7047F0B44D000D44EC006E
:100CAC0004446569002565616769BDF810603E43C1
:100CBC00666101314C006718FE0086596718FE000A
:100CCC008551865933436718FE00374683513B469E
:100CDC0003445B683B4603445D603B4603445B68EE
:100CEC001A4338444260F0BC7047000001460022B1
:100CFC001046032A10DC10B401F00F03074CE35C20
:100D0C00042B07D1043009090132032AF4DD5DF804
:100D1C00044B70471844FAE7704700BF08000020E6
:100D2C002DE9F04302F00308C2F3800EC2F3C10CAC
:100D3C00C2F341120024012601E0760001340F2C8D
:100D4C002EDC3142F9D0076865000323AB40DB434E
:100D5C001F400760076808FA05F947EA09070760AA
:100D6C0047684FF0010909FA04F927EA09074760B7
:100D7C0047680EFA04F947EA0907476087681F407D
:100D8C00876087680CFA05F947EA09078760C76826
:100D9C003B40C360C76802FA05F33B43C360CCE732
:100DAC00BDE8F08370B50646144600F120050846F0
:100DBC00FFF79CFF072802DD06F1240508388000A8
:100DCC0004FA00F0286070BD82B0002100910B4B3A
:100DDC001A6B42F080021A631A6B02F080020092C6
:100DEC00009A01911A6B42F001021A631B6B03F01B
:100DFC0001030193019B02B0704700BF0038024011
:100E0C0010B400240BE0322303FB04F3991803F60F
:100E1C00B83340F821300132312AF4DD01343B2C57
:100E2C0001DC0022F8E75DF8044B704710B582B086
:100E3C00114B1A6C42F002021A641A6A42F0020256
:100E4C001A621A6A22F002021A620C4C4EF66023E5
:100E5C00E3621D23A3620023636240F6B832009262
:100E6C0006220121204600F010F9236A43F0010309
:100E7C00236202B010BD00BF0038024000040040E5
:100E8C0030B595B03022002108A800F069F9002493
:100E9C000394049405940694079401941C4B1A6CC7
:100EAC0042F080521A641B6C03F080530193019B37
:100EBC000294184B1A6842F440421A601B6803F4FF
:100ECC0040430293029B012308934FF48033099310
:100EDC0002250E954FF480030F9304231093B42234
:100EEC0011921295139308A8FFF7E6FBFFF7A4FBEA
:100EFC000F230393049505944FF4A05306934FF4DA
:100F0C0080530793052103A8FFF70EFE15B030BDE3
:100F1C00003802400070004000B583B0FFF704FBBE
:100F2C00FFF7AEFFFFF750FF224C236943F002039B
:100F3C002361236923F002032361236B43F0020333
:100F4C0023631D4E3046FFF75BFF1C4D1A22102108
:100F5C002846FFF7E5FE022210212846FFF722FF64
:100F6C00A5F500352B6823F001032B60FFF75EFF1E
:100F7C00EB6843F40073EB60236B43F400132363BF
:100F8C0004F520540E4A04212046FFF779FE40F662
:100F9C00B83300930B4B324604212046FFF77CFEFE
:100FAC00236F43F0010323672B6843F001032B608D
:100FBC00FEE700BF003802403C0000200004024065
:100FCC004055000A3404004082B0002100910B4BC4
:100FDC005A6C42F480425A645A6C02F48042009279
:100FEC00009A01911A6C42F080521A641B6C03F047
:100FFC0080530193019B02B0704700BF0038024040
:10100C007047FEE7FEE7FEE7FEE770477047704764
:10101C0008B5FFF7A3FA08BD0F49D1F8883043F49F
:10102C007003C1F888300D4B1A6842F001021A6047
:10103C00002098601A6822F0847222F480321A60C0
:10104C00074A5A601A6822F480221A60D8604FF05E
:10105C0000638B60704700BF00ED00E00038024079
:10106C001030002410B400F1180411F0010F0AD054
:10107C000023022901D900F11C0404339A40226098
:10108C005DF8044B70470823F3E770B505460C4632
:10109C001E46FFF7E7FF05F1340204F180410139E8
:1010AC008B00049842F821002A6A0221994022EA16
:1010BC0001022A622A6A013306FA03F313432B62F4
:1010CC0070BD0000DFF834D0002103E00C4B5B58FE
:1010DC00435004310B480C4B42189A42F6D30B4A3E
:1010EC0002E0002342F8043B094B9A42F9D3FFF784
:1010FC0093FF00F011F8FFF70FFF7047000003207B
:10110C00BC110008000000201C0000201C00002066
:10111C001C2F0020FEE7000070B50D4E0D4CA41BDB
:10112C00A4100025A54209D10B4E0C4C00F020F860
:10113C00A41BA4100025A54205D170BD56F825307E
:10114C0098470135EEE756F8253098470135F2E718
:10115C00B4110008B4110008B4110008B81100084B
:10116C0002440346934200D1704703F8011BF9E790
:10117C00F8B500BFF8BC08BC9E467047F8B500BF78
:08118C00F8BC08BC9E46704748
:101194000000000000000000010203040607080923
:0811A400000000000102030439
:0811AC0070F0FF7F010000005C
:0411B400D10100085D
:0411B800AD0100087D
:1011BC000100000010000000040001010202020204
:0C11CC0003030303030303030024F400E7
:04000005080010D10E
:00000001FF
